{
  "contractName": "VERECOToken",
  "abi": [
    {
      "inputs": [
        {
          "internalType": "address",
          "name": "initialOwner",
          "type": "address"
        },
        {
          "internalType": "address",
          "name": "recipient",
          "type": "address"
        }
      ],
      "stateMutability": "nonpayable",
      "type": "constructor"
    },
    {
      "inputs": [],
      "name": "CheckpointUnorderedInsertion",
      "type": "error"
    },
    {
      "inputs": [],
      "name": "ECDSAInvalidSignature",
      "type": "error"
    },
    {
      "inputs": [
        {
          "internalType": "uint256",
          "name": "length",
          "type": "uint256"
        }
      ],
      "name": "ECDSAInvalidSignatureLength",
      "type": "error"
    },
    {
      "inputs": [
        {
          "internalType": "bytes32",
          "name": "s",
          "type": "bytes32"
        }
      ],
      "name": "ECDSAInvalidSignatureS",
      "type": "error"
    },
    {
      "inputs": [
        {
          "internalType": "uint256",
          "name": "increasedSupply",
          "type": "uint256"
        },
        {
          "internalType": "uint256",
          "name": "cap",
          "type": "uint256"
        }
      ],
      "name": "ERC20ExceededSafeSupply",
      "type": "error"
    },
    {
      "inputs": [
        {
          "internalType": "address",
          "name": "spender",
          "type": "address"
        },
        {
          "internalType": "uint256",
          "name": "allowance",
          "type": "uint256"
        },
        {
          "internalType": "uint256",
          "name": "needed",
          "type": "uint256"
        }
      ],
      "name": "ERC20InsufficientAllowance",
      "type": "error"
    },
    {
      "inputs": [
        {
          "internalType": "address",
          "name": "sender",
          "type": "address"
        },
        {
          "internalType": "uint256",
          "name": "balance",
          "type": "uint256"
        },
        {
          "internalType": "uint256",
          "name": "needed",
          "type": "uint256"
        }
      ],
      "name": "ERC20InsufficientBalance",
      "type": "error"
    },
    {
      "inputs": [
        {
          "internalType": "address",
          "name": "approver",
          "type": "address"
        }
      ],
      "name": "ERC20InvalidApprover",
      "type": "error"
    },
    {
      "inputs": [
        {
          "internalType": "address",
          "name": "receiver",
          "type": "address"
        }
      ],
      "name": "ERC20InvalidReceiver",
      "type": "error"
    },
    {
      "inputs": [
        {
          "internalType": "address",
          "name": "sender",
          "type": "address"
        }
      ],
      "name": "ERC20InvalidSender",
      "type": "error"
    },
    {
      "inputs": [
        {
          "internalType": "address",
          "name": "spender",
          "type": "address"
        }
      ],
      "name": "ERC20InvalidSpender",
      "type": "error"
    },
    {
      "inputs": [
        {
          "internalType": "uint256",
          "name": "deadline",
          "type": "uint256"
        }
      ],
      "name": "ERC2612ExpiredSignature",
      "type": "error"
    },
    {
      "inputs": [
        {
          "internalType": "address",
          "name": "signer",
          "type": "address"
        },
        {
          "internalType": "address",
          "name": "owner",
          "type": "address"
        }
      ],
      "name": "ERC2612InvalidSigner",
      "type": "error"
    },
    {
      "inputs": [
        {
          "internalType": "uint256",
          "name": "maxLoan",
          "type": "uint256"
        }
      ],
      "name": "ERC3156ExceededMaxLoan",
      "type": "error"
    },
    {
      "inputs": [
        {
          "internalType": "address",
          "name": "receiver",
          "type": "address"
        }
      ],
      "name": "ERC3156InvalidReceiver",
      "type": "error"
    },
    {
      "inputs": [
        {
          "internalType": "address",
          "name": "token",
          "type": "address"
        }
      ],
      "name": "ERC3156UnsupportedToken",
      "type": "error"
    },
    {
      "inputs": [
        {
          "internalType": "uint256",
          "name": "timepoint",
          "type": "uint256"
        },
        {
          "internalType": "uint48",
          "name": "clock",
          "type": "uint48"
        }
      ],
      "name": "ERC5805FutureLookup",
      "type": "error"
    },
    {
      "inputs": [],
      "name": "ERC6372InconsistentClock",
      "type": "error"
    },
    {
      "inputs": [],
      "name": "EnforcedPause",
      "type": "error"
    },
    {
      "inputs": [],
      "name": "ExpectedPause",
      "type": "error"
    },
    {
      "inputs": [
        {
          "internalType": "address",
          "name": "account",
          "type": "address"
        },
        {
          "internalType": "uint256",
          "name": "currentNonce",
          "type": "uint256"
        }
      ],
      "name": "InvalidAccountNonce",
      "type": "error"
    },
    {
      "inputs": [],
      "name": "InvalidShortString",
      "type": "error"
    },
    {
      "inputs": [
        {
          "internalType": "address",
          "name": "owner",
          "type": "address"
        }
      ],
      "name": "OwnableInvalidOwner",
      "type": "error"
    },
    {
      "inputs": [
        {
          "internalType": "address",
          "name": "account",
          "type": "address"
        }
      ],
      "name": "OwnableUnauthorizedAccount",
      "type": "error"
    },
    {
      "inputs": [
        {
          "internalType": "uint8",
          "name": "bits",
          "type": "uint8"
        },
        {
          "internalType": "uint256",
          "name": "value",
          "type": "uint256"
        }
      ],
      "name": "SafeCastOverflowedUintDowncast",
      "type": "error"
    },
    {
      "inputs": [
        {
          "internalType": "string",
          "name": "str",
          "type": "string"
        }
      ],
      "name": "StringTooLong",
      "type": "error"
    },
    {
      "inputs": [
        {
          "internalType": "uint256",
          "name": "expiry",
          "type": "uint256"
        }
      ],
      "name": "VotesExpiredSignature",
      "type": "error"
    },
    {
      "anonymous": false,
      "inputs": [
        {
          "indexed": true,
          "internalType": "address",
          "name": "owner",
          "type": "address"
        },
        {
          "indexed": true,
          "internalType": "address",
          "name": "spender",
          "type": "address"
        },
        {
          "indexed": false,
          "internalType": "uint256",
          "name": "value",
          "type": "uint256"
        }
      ],
      "name": "Approval",
      "type": "event"
    },
    {
      "anonymous": false,
      "inputs": [
        {
          "indexed": true,
          "internalType": "address",
          "name": "delegator",
          "type": "address"
        },
        {
          "indexed": true,
          "internalType": "address",
          "name": "fromDelegate",
          "type": "address"
        },
        {
          "indexed": true,
          "internalType": "address",
          "name": "toDelegate",
          "type": "address"
        }
      ],
      "name": "DelegateChanged",
      "type": "event"
    },
    {
      "anonymous": false,
      "inputs": [
        {
          "indexed": true,
          "internalType": "address",
          "name": "delegate",
          "type": "address"
        },
        {
          "indexed": false,
          "internalType": "uint256",
          "name": "previousVotes",
          "type": "uint256"
        },
        {
          "indexed": false,
          "internalType": "uint256",
          "name": "newVotes",
          "type": "uint256"
        }
      ],
      "name": "DelegateVotesChanged",
      "type": "event"
    },
    {
      "anonymous": false,
      "inputs": [],
      "name": "EIP712DomainChanged",
      "type": "event"
    },
    {
      "anonymous": false,
      "inputs": [
        {
          "indexed": true,
          "internalType": "address",
          "name": "previousOwner",
          "type": "address"
        },
        {
          "indexed": true,
          "internalType": "address",
          "name": "newOwner",
          "type": "address"
        }
      ],
      "name": "OwnershipTransferred",
      "type": "event"
    },
    {
      "anonymous": false,
      "inputs": [
        {
          "indexed": false,
          "internalType": "address",
          "name": "account",
          "type": "address"
        }
      ],
      "name": "Paused",
      "type": "event"
    },
    {
      "anonymous": false,
      "inputs": [
        {
          "indexed": true,
          "internalType": "address",
          "name": "from",
          "type": "address"
        },
        {
          "indexed": true,
          "internalType": "address",
          "name": "to",
          "type": "address"
        },
        {
          "indexed": false,
          "internalType": "uint256",
          "name": "value",
          "type": "uint256"
        }
      ],
      "name": "Transfer",
      "type": "event"
    },
    {
      "anonymous": false,
      "inputs": [
        {
          "indexed": false,
          "internalType": "address",
          "name": "account",
          "type": "address"
        }
      ],
      "name": "Unpaused",
      "type": "event"
    },
    {
      "inputs": [],
      "name": "DOMAIN_SEPARATOR",
      "outputs": [
        {
          "internalType": "bytes32",
          "name": "",
          "type": "bytes32"
        }
      ],
      "stateMutability": "view",
      "type": "function",
      "constant": true
    },
    {
      "inputs": [
        {
          "internalType": "address",
          "name": "owner",
          "type": "address"
        },
        {
          "internalType": "address",
          "name": "spender",
          "type": "address"
        }
      ],
      "name": "allowance",
      "outputs": [
        {
          "internalType": "uint256",
          "name": "",
          "type": "uint256"
        }
      ],
      "stateMutability": "view",
      "type": "function",
      "constant": true
    },
    {
      "inputs": [
        {
          "internalType": "address",
          "name": "spender",
          "type": "address"
        },
        {
          "internalType": "uint256",
          "name": "value",
          "type": "uint256"
        }
      ],
      "name": "approve",
      "outputs": [
        {
          "internalType": "bool",
          "name": "",
          "type": "bool"
        }
      ],
      "stateMutability": "nonpayable",
      "type": "function"
    },
    {
      "inputs": [
        {
          "internalType": "address",
          "name": "account",
          "type": "address"
        }
      ],
      "name": "balanceOf",
      "outputs": [
        {
          "internalType": "uint256",
          "name": "",
          "type": "uint256"
        }
      ],
      "stateMutability": "view",
      "type": "function",
      "constant": true
    },
    {
      "inputs": [
        {
          "internalType": "uint256",
          "name": "value",
          "type": "uint256"
        }
      ],
      "name": "burn",
      "outputs": [],
      "stateMutability": "nonpayable",
      "type": "function"
    },
    {
      "inputs": [
        {
          "internalType": "address",
          "name": "account",
          "type": "address"
        },
        {
          "internalType": "uint256",
          "name": "value",
          "type": "uint256"
        }
      ],
      "name": "burnFrom",
      "outputs": [],
      "stateMutability": "nonpayable",
      "type": "function"
    },
    {
      "inputs": [
        {
          "internalType": "address",
          "name": "account",
          "type": "address"
        },
        {
          "internalType": "uint32",
          "name": "pos",
          "type": "uint32"
        }
      ],
      "name": "checkpoints",
      "outputs": [
        {
          "components": [
            {
              "internalType": "uint48",
              "name": "_key",
              "type": "uint48"
            },
            {
              "internalType": "uint208",
              "name": "_value",
              "type": "uint208"
            }
          ],
          "internalType": "struct Checkpoints.Checkpoint208",
          "name": "",
          "type": "tuple"
        }
      ],
      "stateMutability": "view",
      "type": "function",
      "constant": true
    },
    {
      "inputs": [],
      "name": "decimals",
      "outputs": [
        {
          "internalType": "uint8",
          "name": "",
          "type": "uint8"
        }
      ],
      "stateMutability": "view",
      "type": "function",
      "constant": true
    },
    {
      "inputs": [
        {
          "internalType": "address",
          "name": "delegatee",
          "type": "address"
        }
      ],
      "name": "delegate",
      "outputs": [],
      "stateMutability": "nonpayable",
      "type": "function"
    },
    {
      "inputs": [
        {
          "internalType": "address",
          "name": "delegatee",
          "type": "address"
        },
        {
          "internalType": "uint256",
          "name": "nonce",
          "type": "uint256"
        },
        {
          "internalType": "uint256",
          "name": "expiry",
          "type": "uint256"
        },
        {
          "internalType": "uint8",
          "name": "v",
          "type": "uint8"
        },
        {
          "internalType": "bytes32",
          "name": "r",
          "type": "bytes32"
        },
        {
          "internalType": "bytes32",
          "name": "s",
          "type": "bytes32"
        }
      ],
      "name": "delegateBySig",
      "outputs": [],
      "stateMutability": "nonpayable",
      "type": "function"
    },
    {
      "inputs": [
        {
          "internalType": "address",
          "name": "account",
          "type": "address"
        }
      ],
      "name": "delegates",
      "outputs": [
        {
          "internalType": "address",
          "name": "",
          "type": "address"
        }
      ],
      "stateMutability": "view",
      "type": "function",
      "constant": true
    },
    {
      "inputs": [],
      "name": "eip712Domain",
      "outputs": [
        {
          "internalType": "bytes1",
          "name": "fields",
          "type": "bytes1"
        },
        {
          "internalType": "string",
          "name": "name",
          "type": "string"
        },
        {
          "internalType": "string",
          "name": "version",
          "type": "string"
        },
        {
          "internalType": "uint256",
          "name": "chainId",
          "type": "uint256"
        },
        {
          "internalType": "address",
          "name": "verifyingContract",
          "type": "address"
        },
        {
          "internalType": "bytes32",
          "name": "salt",
          "type": "bytes32"
        },
        {
          "internalType": "uint256[]",
          "name": "extensions",
          "type": "uint256[]"
        }
      ],
      "stateMutability": "view",
      "type": "function",
      "constant": true
    },
    {
      "inputs": [
        {
          "internalType": "address",
          "name": "token",
          "type": "address"
        },
        {
          "internalType": "uint256",
          "name": "value",
          "type": "uint256"
        }
      ],
      "name": "flashFee",
      "outputs": [
        {
          "internalType": "uint256",
          "name": "",
          "type": "uint256"
        }
      ],
      "stateMutability": "view",
      "type": "function",
      "constant": true
    },
    {
      "inputs": [
        {
          "internalType": "contract IERC3156FlashBorrower",
          "name": "receiver",
          "type": "address"
        },
        {
          "internalType": "address",
          "name": "token",
          "type": "address"
        },
        {
          "internalType": "uint256",
          "name": "value",
          "type": "uint256"
        },
        {
          "internalType": "bytes",
          "name": "data",
          "type": "bytes"
        }
      ],
      "name": "flashLoan",
      "outputs": [
        {
          "internalType": "bool",
          "name": "",
          "type": "bool"
        }
      ],
      "stateMutability": "nonpayable",
      "type": "function"
    },
    {
      "inputs": [
        {
          "internalType": "uint256",
          "name": "timepoint",
          "type": "uint256"
        }
      ],
      "name": "getPastTotalSupply",
      "outputs": [
        {
          "internalType": "uint256",
          "name": "",
          "type": "uint256"
        }
      ],
      "stateMutability": "view",
      "type": "function",
      "constant": true
    },
    {
      "inputs": [
        {
          "internalType": "address",
          "name": "account",
          "type": "address"
        },
        {
          "internalType": "uint256",
          "name": "timepoint",
          "type": "uint256"
        }
      ],
      "name": "getPastVotes",
      "outputs": [
        {
          "internalType": "uint256",
          "name": "",
          "type": "uint256"
        }
      ],
      "stateMutability": "view",
      "type": "function",
      "constant": true
    },
    {
      "inputs": [
        {
          "internalType": "address",
          "name": "account",
          "type": "address"
        }
      ],
      "name": "getVotes",
      "outputs": [
        {
          "internalType": "uint256",
          "name": "",
          "type": "uint256"
        }
      ],
      "stateMutability": "view",
      "type": "function",
      "constant": true
    },
    {
      "inputs": [
        {
          "internalType": "address",
          "name": "token",
          "type": "address"
        }
      ],
      "name": "maxFlashLoan",
      "outputs": [
        {
          "internalType": "uint256",
          "name": "",
          "type": "uint256"
        }
      ],
      "stateMutability": "view",
      "type": "function",
      "constant": true
    },
    {
      "inputs": [],
      "name": "name",
      "outputs": [
        {
          "internalType": "string",
          "name": "",
          "type": "string"
        }
      ],
      "stateMutability": "view",
      "type": "function",
      "constant": true
    },
    {
      "inputs": [
        {
          "internalType": "address",
          "name": "account",
          "type": "address"
        }
      ],
      "name": "numCheckpoints",
      "outputs": [
        {
          "internalType": "uint32",
          "name": "",
          "type": "uint32"
        }
      ],
      "stateMutability": "view",
      "type": "function",
      "constant": true
    },
    {
      "inputs": [],
      "name": "owner",
      "outputs": [
        {
          "internalType": "address",
          "name": "",
          "type": "address"
        }
      ],
      "stateMutability": "view",
      "type": "function",
      "constant": true
    },
    {
      "inputs": [],
      "name": "paused",
      "outputs": [
        {
          "internalType": "bool",
          "name": "",
          "type": "bool"
        }
      ],
      "stateMutability": "view",
      "type": "function",
      "constant": true
    },
    {
      "inputs": [
        {
          "internalType": "address",
          "name": "owner",
          "type": "address"
        },
        {
          "internalType": "address",
          "name": "spender",
          "type": "address"
        },
        {
          "internalType": "uint256",
          "name": "value",
          "type": "uint256"
        },
        {
          "internalType": "uint256",
          "name": "deadline",
          "type": "uint256"
        },
        {
          "internalType": "uint8",
          "name": "v",
          "type": "uint8"
        },
        {
          "internalType": "bytes32",
          "name": "r",
          "type": "bytes32"
        },
        {
          "internalType": "bytes32",
          "name": "s",
          "type": "bytes32"
        }
      ],
      "name": "permit",
      "outputs": [],
      "stateMutability": "nonpayable",
      "type": "function"
    },
    {
      "inputs": [],
      "name": "renounceOwnership",
      "outputs": [],
      "stateMutability": "nonpayable",
      "type": "function"
    },
    {
      "inputs": [],
      "name": "symbol",
      "outputs": [
        {
          "internalType": "string",
          "name": "",
          "type": "string"
        }
      ],
      "stateMutability": "view",
      "type": "function",
      "constant": true
    },
    {
      "inputs": [],
      "name": "totalSupply",
      "outputs": [
        {
          "internalType": "uint256",
          "name": "",
          "type": "uint256"
        }
      ],
      "stateMutability": "view",
      "type": "function",
      "constant": true
    },
    {
      "inputs": [
        {
          "internalType": "address",
          "name": "to",
          "type": "address"
        },
        {
          "internalType": "uint256",
          "name": "value",
          "type": "uint256"
        }
      ],
      "name": "transfer",
      "outputs": [
        {
          "internalType": "bool",
          "name": "",
          "type": "bool"
        }
      ],
      "stateMutability": "nonpayable",
      "type": "function"
    },
    {
      "inputs": [
        {
          "internalType": "address",
          "name": "from",
          "type": "address"
        },
        {
          "internalType": "address",
          "name": "to",
          "type": "address"
        },
        {
          "internalType": "uint256",
          "name": "value",
          "type": "uint256"
        }
      ],
      "name": "transferFrom",
      "outputs": [
        {
          "internalType": "bool",
          "name": "",
          "type": "bool"
        }
      ],
      "stateMutability": "nonpayable",
      "type": "function"
    },
    {
      "inputs": [
        {
          "internalType": "address",
          "name": "newOwner",
          "type": "address"
        }
      ],
      "name": "transferOwnership",
      "outputs": [],
      "stateMutability": "nonpayable",
      "type": "function"
    },
    {
      "inputs": [
        {
          "internalType": "address",
          "name": "to",
          "type": "address"
        },
        {
          "internalType": "uint256",
          "name": "amount",
          "type": "uint256"
        }
      ],
      "name": "mint",
      "outputs": [],
      "stateMutability": "nonpayable",
      "type": "function"
    },
    {
      "inputs": [],
      "name": "pause",
      "outputs": [],
      "stateMutability": "nonpayable",
      "type": "function"
    },
    {
      "inputs": [],
      "name": "unpause",
      "outputs": [],
      "stateMutability": "nonpayable",
      "type": "function"
    },
    {
      "inputs": [],
      "name": "clock",
      "outputs": [
        {
          "internalType": "uint48",
          "name": "",
          "type": "uint48"
        }
      ],
      "stateMutability": "view",
      "type": "function",
      "constant": true
    },
    {
      "inputs": [],
      "name": "CLOCK_MODE",
      "outputs": [
        {
          "internalType": "string",
          "name": "",
          "type": "string"
        }
      ],
      "stateMutability": "pure",
      "type": "function",
      "constant": true
    },
    {
      "inputs": [
        {
          "internalType": "address",
          "name": "owner",
          "type": "address"
        }
      ],
      "name": "nonces",
      "outputs": [
        {
          "internalType": "uint256",
          "name": "",
          "type": "uint256"
        }
      ],
      "stateMutability": "view",
      "type": "function",
      "constant": true
    }
  ],
  "bytecode": "0x61016060405234801562000011575f80fd5b50604051620030d5380380620030d583398101604081905262000034916200095a565b6040518060400160405280600c81526020016b45617274685265637469667960a01b81525080604051806040016040528060018152602001603160f81b815250846040518060400160405280600c81526020016b45617274685265637469667960a01b8152506040518060400160405280600681526020016556455245434f60d01b8152508160039081620000ca919062000a2f565b506004620000d9828262000a2f565b5050506001600160a01b0381166200010b57604051631e4fbdf760e01b81525f60048201526024015b60405180910390fd5b6200011681620001fc565b50620001248260066200024d565b61012052620001358160076200024d565b61014052815160208084019190912060e052815190820120610100524660a052620001c260e05161010051604080517f8b73c3c69bb8fe3d512ecc4cf759cc79239f7b179b0ffacaa9a75d522b39400f60208201529081019290925260608201524660808201523060a08201525f9060c00160405160208183030381529060405280519060200120905090565b60805250503060c05250620001f481620001df6012600a62000c04565b620001ee90620f424062000c14565b62000285565b505062000d18565b600580546001600160a01b038381166001600160a01b0319831681179093556040519116919082907f8be0079c531659141344cd1fd0a4f28419497f9722a3daafe3b4186f6b6457e0905f90a35050565b5f6020835110156200026c576200026483620002c1565b90506200027f565b8162000279848262000a2f565b5060ff90505b92915050565b6001600160a01b038216620002b05760405163ec442f0560e01b81525f600482015260240162000102565b620002bd5f838362000303565b5050565b5f80829050601f81511115620002ee578260405163305a27a960e01b815260040162000102919062000c2e565b8051620002fb8262000c7b565b179392505050565b6200031083838362000315565b505050565b6200032283838362000383565b6001600160a01b03831662000376575f6200033c60025490565b90506001600160d01b03808211156200037357604051630e58ae9360e11b8152600481018390526024810182905260440162000102565b50505b620003108383836200039a565b6200038d62000431565b6200031083838362000466565b6001600160a01b038316620003cf57620003cc600b62000bb36200059560201b17620003c684620005a9565b620005e2565b50505b6001600160a01b038216620003fe57620003fb600b62000bbe6200061560201b17620003c684620005a9565b50505b6001600160a01b038381165f90815260096020526040808220548584168352912054620003109291821691168362000622565b62000445600554600160a01b900460ff1690565b15620004645760405163d93c066560e01b815260040160405180910390fd5b565b6001600160a01b03831662000494578060025f82825462000488919062000c9f565b90915550620005069050565b6001600160a01b0383165f9081526020819052604090205481811015620004e85760405163391434e360e21b81526001600160a01b0385166004820152602481018290526044810183905260640162000102565b6001600160a01b0384165f9081526020819052604090209082900390555b6001600160a01b038216620005245760028054829003905562000542565b6001600160a01b0382165f9081526020819052604090208054820190555b816001600160a01b0316836001600160a01b03167fddf252ad1be2c89b69c2b068fc378daa952ba7f163c4a11628f55a4df523b3ef836040516200058891815260200190565b60405180910390a3505050565b5f620005a2828462000cb5565b9392505050565b5f6001600160d01b03821115620005de576040516306dfcc6560e41b815260d060048201526024810183905260440162000102565b5090565b5f806200060842620005ff620005f88862000784565b868860201c565b879190620007d0565b915091505b935093915050565b5f620005a2828462000cdf565b816001600160a01b0316836001600160a01b0316141580156200064457505f81115b1562000310576001600160a01b03831615620006e5576001600160a01b0383165f908152600a602090815260408220829162000691919062000615901b62000bbe17620003c686620005a9565b6001600160d01b031691506001600160d01b03169150846001600160a01b03165f80516020620030b58339815191528383604051620006da929190918252602082015260400190565b60405180910390a250505b6001600160a01b0382161562000310576001600160a01b0382165f908152600a60209081526040822082916200072c919062000595901b62000bb317620003c686620005a9565b6001600160d01b031691506001600160d01b03169150836001600160a01b03165f80516020620030b5833981519152838360405162000775929190918252602082015260400190565b60405180910390a25050505050565b80545f908015620007c857620007ae83620007a160018462000d02565b5f91825260209091200190565b54660100000000000090046001600160d01b0316620005a2565b5f9392505050565b5f806200060885858582545f9081908015620008e0575f620007f987620007a160018562000d02565b805490915065ffffffffffff80821691660100000000000090046001600160d01b03169088168211156200084057604051632520601d60e01b815260040160405180910390fd5b8765ffffffffffff168265ffffffffffff16036200087e57825465ffffffffffff1666010000000000006001600160d01b03891602178355620008d1565b6040805180820190915265ffffffffffff808a1682526001600160d01b03808a1660208085019182528d54600181018f555f8f815291909120945191519092166601000000000000029216919091179101555b94508593506200060d92505050565b50506040805180820190915265ffffffffffff80851682526001600160d01b0380851660208085019182528854600181018a555f8a81529182209551925190931666010000000000000291909316179201919091559050816200060d565b80516001600160a01b038116811462000955575f80fd5b919050565b5f80604083850312156200096c575f80fd5b62000977836200093e565b915062000987602084016200093e565b90509250929050565b634e487b7160e01b5f52604160045260245ffd5b600181811c90821680620009b957607f821691505b602082108103620009d857634e487b7160e01b5f52602260045260245ffd5b50919050565b601f82111562000310575f81815260208120601f850160051c8101602086101562000a065750805b601f850160051c820191505b8181101562000a275782815560010162000a12565b505050505050565b81516001600160401b0381111562000a4b5762000a4b62000990565b62000a638162000a5c8454620009a4565b84620009de565b602080601f83116001811462000a99575f841562000a815750858301515b5f19600386901b1c1916600185901b17855562000a27565b5f85815260208120601f198616915b8281101562000ac95788860151825594840194600190910190840162000aa8565b508582101562000ae757878501515f19600388901b60f8161c191681555b5050505050600190811b01905550565b634e487b7160e01b5f52601160045260245ffd5b600181815b8085111562000b4b57815f190482111562000b2f5762000b2f62000af7565b8085161562000b3d57918102915b93841c939080029062000b10565b509250929050565b5f8262000b63575060016200027f565b8162000b7157505f6200027f565b816001811462000b8a576002811462000b955762000bb5565b60019150506200027f565b60ff84111562000ba95762000ba962000af7565b50506001821b6200027f565b5060208310610133831016604e8410600b841016171562000bda575081810a6200027f565b62000be6838362000b0b565b805f190482111562000bfc5762000bfc62000af7565b029392505050565b5f620005a260ff84168362000b53565b80820281158282048414176200027f576200027f62000af7565b5f6020808352835180828501525f5b8181101562000c5b5785810183015185820160400152820162000c3d565b505f604082860101526040601f19601f8301168501019250505092915050565b80516020808301519190811015620009d8575f1960209190910360031b1b16919050565b808201808211156200027f576200027f62000af7565b6001600160d01b0381811683821601908082111562000cd85762000cd862000af7565b5092915050565b6001600160d01b0382811682821603908082111562000cd85762000cd862000af7565b818103818111156200027f576200027f62000af7565b60805160a05160c05160e05161010051610120516101405161234b62000d6a5f395f61113201525f61110501525f610d8d01525f610d6501525f610cc001525f610cea01525f610d14015261234b5ff3fe608060405234801561000f575f80fd5b5060043610610208575f3560e01c806370a082311161011f57806395d89b41116100a9578063d505accf11610079578063d505accf146104a0578063d9d98ce4146104b3578063dd62ed3e146104c6578063f1127ed8146104fe578063f2fde38b1461053d575f80fd5b806395d89b411461045f5780639ab24eb014610467578063a9059cbb1461047a578063c3cda5201461048d575f80fd5b80638456cb59116100ef5780638456cb591461040257806384b0196e1461040a5780638da5cb5b146104255780638e539e8c1461043657806391ddadf414610449575f80fd5b806370a08231146103ac578063715018a6146103d457806379cc6790146103dc5780637ecebe00146103ef575f80fd5b806340c10f19116101a05780635c19a95c116101705780635c19a95c146103395780635c975abb1461034c5780635cffe9de1461035e578063613255ab146103715780636fcfff4514610384575f80fd5b806340c10f19146102a657806342966c68146102b95780634bf5d7e9146102cc578063587cde1e146102f6575f80fd5b8063313ce567116101db578063313ce567146102725780633644e515146102815780633a46b1a8146102895780633f4ba83a1461029c575f80fd5b806306fdde031461020c578063095ea7b31461022a57806318160ddd1461024d57806323b872dd1461025f575b5f80fd5b610214610550565b6040516102219190611e66565b60405180910390f35b61023d610238366004611e8c565b6105e0565b6040519015158152602001610221565b6002545b604051908152602001610221565b61023d61026d366004611eb6565b6105f9565b60405160128152602001610221565b61025161061c565b610251610297366004611e8c565b61062a565b6102a4610664565b005b6102a46102b4366004611e8c565b610676565b6102a46102c7366004611ef4565b61068c565b60408051808201909152600e81526d06d6f64653d74696d657374616d760941b6020820152610214565b610321610304366004611f0b565b6001600160a01b039081165f908152600960205260409020541690565b6040516001600160a01b039091168152602001610221565b6102a4610347366004611f0b565b610699565b600554600160a01b900460ff1661023d565b61023d61036c366004611f26565b6106a4565b61025161037f366004611f0b565b61081b565b610397610392366004611f0b565b610840565b60405163ffffffff9091168152602001610221565b6102516103ba366004611f0b565b6001600160a01b03165f9081526020819052604090205490565b6102a461084a565b6102a46103ea366004611e8c565b61085b565b6102516103fd366004611f0b565b610870565b6102a461087a565b61041261088a565b6040516102219796959493929190611fbd565b6005546001600160a01b0316610321565b610251610444366004611ef4565b6108cc565b60405165ffffffffffff42168152602001610221565b6102146108f0565b610251610475366004611f0b565b6108ff565b61023d610488366004611e8c565b61091f565b6102a461049b366004612066565b61092c565b6102a46104ae3660046120bc565b6109e8565b6102516104c1366004611e8c565b610b1e565b6102516104d4366004612125565b6001600160a01b039182165f90815260016020908152604080832093909416825291909152205490565b61051161050c36600461215c565b610b5c565b60408051825165ffffffffffff1681526020928301516001600160d01b03169281019290925201610221565b6102a461054b366004611f0b565b610b79565b60606003805461055f90612190565b80601f016020809104026020016040519081016040528092919081815260200182805461058b90612190565b80156105d65780601f106105ad576101008083540402835291602001916105d6565b820191905f5260205f20905b8154815290600101906020018083116105b957829003601f168201915b5050505050905090565b5f336105ed818585610bc9565b60019150505b92915050565b5f33610606858285610bdb565b610611858585610c57565b506001949350505050565b5f610625610cb4565b905090565b5f61065461063783610ddd565b6001600160a01b0385165f908152600a6020526040902090610e21565b6001600160d01b03169392505050565b61066c610ed1565b610674610efe565b565b61067e610ed1565b6106888282610f53565b5050565b6106963382610f87565b50565b336106888183610fbb565b5f806106af8661081b565b9050808511156106da5760405163fd9a760960e01b8152600481018290526024015b60405180910390fd5b5f6106e58787610b1e565b90506106f18887610f53565b6040516323e30c8b60e01b81527f439148f0bbc682ca079e46d6e2c2f0c1e3b820f1a291b069d8882abf8cf18dd9906001600160a01b038a16906323e30c8b906107499033908c908c9088908d908d906004016121c8565b6020604051808303815f875af1158015610765573d5f803e3d5ffd5b505050506040513d601f19601f820116820180604052508101906107899190612222565b146107b15760405162678c5b60e81b81526001600160a01b03891660048201526024016106d1565b5f6107c689306107c1858b61224d565b610bdb565b8115806107da57506001600160a01b038116155b156107f7576107f2896107ed848a61224d565b610f87565b61080c565b6108018988610f87565b61080c898284610c57565b50600198975050505050505050565b5f6001600160a01b0382163014610832575f6105f3565b6002546105f3905f19612260565b5f6105f38261102c565b610852610ed1565b6106745f61104d565b610866823383610bdb565b6106888282610f87565b5f6105f38261109e565b610882610ed1565b6106746110bb565b5f6060805f805f606061089b6110fe565b6108a361112b565b604080515f80825260208201909252600f60f81b9b939a50919850469750309650945092509050565b5f6108e16108d983610ddd565b600b90610e21565b6001600160d01b031692915050565b60606004805461055f90612190565b6001600160a01b0381165f908152600a602052604081206108e190611158565b5f336105ed818585610c57565b8342111561095057604051632341d78760e11b8152600481018590526024016106d1565b604080517fe48329057bfd03d55e49b547132e39cffd9c1820ad7b9d4c5307691425d15adf60208201526001600160a01b0388169181019190915260608101869052608081018590525f906109c9906109c19060a00160405160208183030381529060405280519060200120611187565b8585856111b3565b90506109d581876111df565b6109df8188610fbb565b50505050505050565b83421115610a0c5760405163313c898160e11b8152600481018590526024016106d1565b5f7f6e71edae12b1b97f4d1f60370fef10105fa2faae0126114a169c64845d6126c9888888610a578c6001600160a01b03165f90815260086020526040902080546001810190915590565b6040805160208101969096526001600160a01b0394851690860152929091166060840152608083015260a082015260c0810186905260e0016040516020818303038152906040528051906020012090505f610ab182611187565b90505f610ac0828787876111b3565b9050896001600160a01b0316816001600160a01b031614610b07576040516325c0072360e11b81526001600160a01b0380831660048301528b1660248201526044016106d1565b610b128a8a8a610bc9565b50505050505050505050565b5f6001600160a01b0383163014610b5357604051635ad3edc960e11b81526001600160a01b03841660048201526024016106d1565b5f5b9392505050565b604080518082019091525f8082526020820152610b558383611231565b610b81610ed1565b6001600160a01b038116610baa57604051631e4fbdf760e01b81525f60048201526024016106d1565b6106968161104d565b5f610b558284612273565b5f610b55828461229a565b610bd68383836001611265565b505050565b6001600160a01b038381165f908152600160209081526040808320938616835292905220545f19811015610c515781811015610c4357604051637dc7a0d960e11b81526001600160a01b038416600482015260248101829052604481018390526064016106d1565b610c5184848484035f611265565b50505050565b6001600160a01b038316610c8057604051634b637e8f60e11b81525f60048201526024016106d1565b6001600160a01b038216610ca95760405163ec442f0560e01b81525f60048201526024016106d1565b610bd6838383611337565b5f306001600160a01b037f000000000000000000000000000000000000000000000000000000000000000016148015610d0c57507f000000000000000000000000000000000000000000000000000000000000000046145b15610d3657507f000000000000000000000000000000000000000000000000000000000000000090565b610625604080517f8b73c3c69bb8fe3d512ecc4cf759cc79239f7b179b0ffacaa9a75d522b39400f60208201527f0000000000000000000000000000000000000000000000000000000000000000918101919091527f000000000000000000000000000000000000000000000000000000000000000060608201524660808201523060a08201525f9060c00160405160208183030381529060405280519060200120905090565b5f4265ffffffffffff81168310610e1857604051637669fc0f60e11b81526004810184905265ffffffffffff821660248201526044016106d1565b610b5583611342565b81545f9081816005811115610e7d575f610e3a84611378565b610e449085612260565b5f8881526020902090915081015465ffffffffffff9081169087161015610e6d57809150610e7b565b610e7881600161224d565b92505b505b5f610e8a878785856114d0565b90508015610ec457610eae87610ea1600184612260565b5f91825260209091200190565b54600160301b90046001600160d01b0316610ec6565b5f5b979650505050505050565b6005546001600160a01b031633146106745760405163118cdaa760e01b81523360048201526024016106d1565b610f0661152f565b6005805460ff60a01b191690557f5db9ee0a495bf2e6ff9c91a7834c1ba4fdd244a5e8aa4e537bd38aeae4b073aa335b6040516001600160a01b03909116815260200160405180910390a1565b6001600160a01b038216610f7c5760405163ec442f0560e01b81525f60048201526024016106d1565b6106885f8383611337565b6001600160a01b038216610fb057604051634b637e8f60e11b81525f60048201526024016106d1565b610688825f83611337565b6001600160a01b038281165f8181526009602052604080822080548686166001600160a01b0319821681179092559151919094169392849290917f3134e8a2e6d97e929a7e54011ea5485d7d196dd5f0ba4d4ef95803e8e3fc257f9190a4610bd6818361102786611559565b611576565b6001600160a01b0381165f908152600a60205260408120546105f3906116df565b600580546001600160a01b038381166001600160a01b0319831681179093556040519116919082907f8be0079c531659141344cd1fd0a4f28419497f9722a3daafe3b4186f6b6457e0905f90a35050565b6001600160a01b0381165f908152600860205260408120546105f3565b6110c361170f565b6005805460ff60a01b1916600160a01b1790557f62e78cea01bee320cd4e420270b5ea74000d11b0c9f74754ebdbfc544b05a258610f363390565b60606106257f0000000000000000000000000000000000000000000000000000000000000000600661173a565b60606106257f0000000000000000000000000000000000000000000000000000000000000000600761173a565b80545f908015610b535761117183610ea1600184612260565b54600160301b90046001600160d01b0316610b55565b5f6105f3611193610cb4565b8360405161190160f01b8152600281019290925260228201526042902090565b5f805f806111c3888888886117e3565b9250925092506111d382826118ab565b50909695505050505050565b6001600160a01b0382165f908152600860205260409020805460018101909155818114610bd6576040516301d4b62360e61b81526001600160a01b0384166004820152602481018290526044016106d1565b604080518082019091525f80825260208201526001600160a01b0383165f908152600a60205260409020610b559083611963565b6001600160a01b03841661128e5760405163e602df0560e01b81525f60048201526024016106d1565b6001600160a01b0383166112b757604051634a1406b160e11b81525f60048201526024016106d1565b6001600160a01b038085165f9081526001602090815260408083209387168352929052208290558015610c5157826001600160a01b0316846001600160a01b03167f8c5be1e5ebec7d5bd14f71427d1e84f3dd0314c0f7b2291e5b200ac8c7c3b9258460405161132991815260200190565b60405180910390a350505050565b610bd68383836119d0565b5f65ffffffffffff821115611374576040516306dfcc6560e41b815260306004820152602481018390526044016106d1565b5090565b5f60018211611385575090565b816001600160801b821061139e5760809190911c9060401b5b6801000000000000000082106113b95760409190911c9060201b5b64010000000082106113d05760209190911c9060101b5b6201000082106113e55760109190911c9060081b5b61010082106113f95760089190911c9060041b5b6010821061140c5760049190911c9060021b5b600482106114185760011b5b600302600190811c90818581611430576114306122ba565b048201901c90506001818581611448576114486122ba565b048201901c90506001818581611460576114606122ba565b048201901c90506001818581611478576114786122ba565b048201901c90506001818581611490576114906122ba565b048201901c905060018185816114a8576114a86122ba565b048201901c90506114c78185816114c1576114c16122ba565b04821190565b90039392505050565b5f5b81831015611527575f6114e58484611a36565b5f8781526020902090915065ffffffffffff86169082015465ffffffffffff16111561151357809250611521565b61151e81600161224d565b93505b506114d2565b509392505050565b600554600160a01b900460ff1661067457604051638dfc202b60e01b815260040160405180910390fd5b6001600160a01b0381165f908152602081905260408120546105f3565b816001600160a01b0316836001600160a01b03161415801561159757505f81115b15610bd6576001600160a01b0383161561163e576001600160a01b0383165f908152600a6020526040812081906115d990610bbe6115d486611a50565b611a83565b6001600160d01b031691506001600160d01b03169150846001600160a01b03167fdec2bacdd2f05b59de34da9b523dff8be42e5e38e818c82fdb0bae774387a7248383604051611633929190918252602082015260400190565b60405180910390a250505b6001600160a01b03821615610bd6576001600160a01b0382165f908152600a60205260408120819061167690610bb36115d486611a50565b6001600160d01b031691506001600160d01b03169150836001600160a01b03167fdec2bacdd2f05b59de34da9b523dff8be42e5e38e818c82fdb0bae774387a72483836040516116d0929190918252602082015260400190565b60405180910390a25050505050565b5f63ffffffff821115611374576040516306dfcc6560e41b815260206004820152602481018390526044016106d1565b600554600160a01b900460ff16156106745760405163d93c066560e01b815260040160405180910390fd5b606060ff83146117545761174d83611ab4565b90506105f3565b81805461176090612190565b80601f016020809104026020016040519081016040528092919081815260200182805461178c90612190565b80156117d75780601f106117ae576101008083540402835291602001916117d7565b820191905f5260205f20905b8154815290600101906020018083116117ba57829003601f168201915b505050505090506105f3565b5f80807f7fffffffffffffffffffffffffffffff5d576e7357a4501ddfe92f46681b20a084111561181c57505f915060039050826118a1565b604080515f808252602082018084528a905260ff891692820192909252606081018790526080810186905260019060a0016020604051602081039080840390855afa15801561186d573d5f803e3d5ffd5b5050604051601f1901519150506001600160a01b03811661189857505f9250600191508290506118a1565b92505f91508190505b9450945094915050565b5f8260038111156118be576118be6122ce565b036118c7575050565b60018260038111156118db576118db6122ce565b036118f95760405163f645eedf60e01b815260040160405180910390fd5b600282600381111561190d5761190d6122ce565b0361192e5760405163fce698f760e01b8152600481018290526024016106d1565b6003826003811115611942576119426122ce565b03610688576040516335e2f38360e21b8152600481018290526024016106d1565b604080518082019091525f8082526020820152825f018263ffffffff1681548110611990576119906122e2565b5f9182526020918290206040805180820190915291015465ffffffffffff81168252600160301b90046001600160d01b0316918101919091529392505050565b6119db838383611af1565b6001600160a01b038316611a2b575f6119f360025490565b90506001600160d01b0380821115611a2857604051630e58ae9360e11b815260048101839052602481018290526044016106d1565b50505b610bd6838383611b04565b5f611a4460028484186122f6565b610b559084841661224d565b5f6001600160d01b03821115611374576040516306dfcc6560e41b815260d06004820152602481018390526044016106d1565b5f80611aa742611a9f611a9588611158565b868863ffffffff16565b879190611b79565b915091505b935093915050565b60605f611ac083611b86565b6040805160208082528183019092529192505f91906020820181803683375050509182525060208101929092525090565b611af961170f565b610bd6838383611bad565b6001600160a01b038316611b2657611b23600b610bb36115d484611a50565b50505b6001600160a01b038216611b4857611b45600b610bbe6115d484611a50565b50505b6001600160a01b038381165f90815260096020526040808220548584168352912054610bd692918216911683611576565b5f80611aa7858585611cd3565b5f60ff8216601f8111156105f357604051632cd44ac360e21b815260040160405180910390fd5b6001600160a01b038316611bd7578060025f828254611bcc919061224d565b90915550611c479050565b6001600160a01b0383165f9081526020819052604090205481811015611c295760405163391434e360e21b81526001600160a01b038516600482015260248101829052604481018390526064016106d1565b6001600160a01b0384165f9081526020819052604090209082900390555b6001600160a01b038216611c6357600280548290039055611c81565b6001600160a01b0382165f9081526020819052604090208054820190555b816001600160a01b0316836001600160a01b03167fddf252ad1be2c89b69c2b068fc378daa952ba7f163c4a11628f55a4df523b3ef83604051611cc691815260200190565b60405180910390a3505050565b82545f9081908015611dc9575f611cef87610ea1600185612260565b805490915065ffffffffffff80821691600160301b90046001600160d01b0316908816821115611d3257604051632520601d60e01b815260040160405180910390fd5b8765ffffffffffff168265ffffffffffff1603611d6b57825465ffffffffffff16600160301b6001600160d01b03891602178355611dbb565b6040805180820190915265ffffffffffff808a1682526001600160d01b03808a1660208085019182528d54600181018f555f8f81529190912094519151909216600160301b029216919091179101555b9450859350611aac92505050565b50506040805180820190915265ffffffffffff80851682526001600160d01b0380851660208085019182528854600181018a555f8a815291822095519251909316600160301b029190931617920191909155905081611aac565b5f81518084525f5b81811015611e4757602081850181015186830182015201611e2b565b505f602082860101526020601f19601f83011685010191505092915050565b602081525f610b556020830184611e23565b6001600160a01b0381168114610696575f80fd5b5f8060408385031215611e9d575f80fd5b8235611ea881611e78565b946020939093013593505050565b5f805f60608486031215611ec8575f80fd5b8335611ed381611e78565b92506020840135611ee381611e78565b929592945050506040919091013590565b5f60208284031215611f04575f80fd5b5035919050565b5f60208284031215611f1b575f80fd5b8135610b5581611e78565b5f805f805f60808688031215611f3a575f80fd5b8535611f4581611e78565b94506020860135611f5581611e78565b935060408601359250606086013567ffffffffffffffff80821115611f78575f80fd5b818801915088601f830112611f8b575f80fd5b813581811115611f99575f80fd5b896020828501011115611faa575f80fd5b9699959850939650602001949392505050565b60ff60f81b881681525f602060e081840152611fdc60e084018a611e23565b8381036040850152611fee818a611e23565b606085018990526001600160a01b038816608086015260a0850187905284810360c086015285518082528387019250908301905f5b8181101561203f57835183529284019291840191600101612023565b50909c9b505050505050505050505050565b803560ff81168114612061575f80fd5b919050565b5f805f805f8060c0878903121561207b575f80fd5b863561208681611e78565b955060208701359450604087013593506120a260608801612051565b92506080870135915060a087013590509295509295509295565b5f805f805f805f60e0888a0312156120d2575f80fd5b87356120dd81611e78565b965060208801356120ed81611e78565b9550604088013594506060880135935061210960808901612051565b925060a0880135915060c0880135905092959891949750929550565b5f8060408385031215612136575f80fd5b823561214181611e78565b9150602083013561215181611e78565b809150509250929050565b5f806040838503121561216d575f80fd5b823561217881611e78565b9150602083013563ffffffff81168114612151575f80fd5b600181811c908216806121a457607f821691505b6020821081036121c257634e487b7160e01b5f52602260045260245ffd5b50919050565b6001600160a01b03878116825286166020820152604081018590526060810184905260a06080820181905281018290525f828460c08401375f60c0848401015260c0601f19601f8501168301019050979650505050505050565b5f60208284031215612232575f80fd5b5051919050565b634e487b7160e01b5f52601160045260245ffd5b808201808211156105f3576105f3612239565b818103818111156105f3576105f3612239565b6001600160d01b0381811683821601908082111561229357612293612239565b5092915050565b6001600160d01b0382811682821603908082111561229357612293612239565b634e487b7160e01b5f52601260045260245ffd5b634e487b7160e01b5f52602160045260245ffd5b634e487b7160e01b5f52603260045260245ffd5b5f8261231057634e487b7160e01b5f52601260045260245ffd5b50049056fea26469706673582212204bcd6db1abd3a58b5de73751dce2626204bfba136330e51538c8e14fd9b8298f64736f6c63430008140033dec2bacdd2f05b59de34da9b523dff8be42e5e38e818c82fdb0bae774387a724",
  "immutableReferences": {
    "4655": [
      {
        "length": 32,
        "start": 3348
      }
    ],
    "4657": [
      {
        "length": 32,
        "start": 3306
      }
    ],
    "4659": [
      {
        "length": 32,
        "start": 3264
      }
    ],
    "4661": [
      {
        "length": 32,
        "start": 3429
      }
    ],
    "4663": [
      {
        "length": 32,
        "start": 3469
      }
    ],
    "4666": [
      {
        "length": 32,
        "start": 4357
      }
    ],
    "4669": [
      {
        "length": 32,
        "start": 4402
      }
    ]
  },
  "source": "// SPDX-License-Identifier: MIT\r\n// Compatible with OpenZeppelin Contracts ^5.0.0\r\npragma solidity ^0.8.0;\r\n\r\nimport {ERC20} from \"@openzeppelin/contracts/token/ERC20/ERC20.sol\";\r\nimport {Ownable} from \"@openzeppelin/contracts/access/Ownable.sol\";\r\nimport {ERC20Burnable} from \"@openzeppelin/contracts/token/ERC20/extensions/ERC20Burnable.sol\";\r\nimport {ERC20Pausable} from \"@openzeppelin/contracts/token/ERC20/extensions/ERC20Pausable.sol\";\r\nimport {ERC20Permit} from \"@openzeppelin/contracts/token/ERC20/extensions/ERC20Permit.sol\";\r\nimport {ERC20FlashMint} from \"@openzeppelin/contracts/token/ERC20/extensions/ERC20FlashMint.sol\";\r\nimport {ERC20Votes} from \"@openzeppelin/contracts/token/ERC20/extensions/ERC20Votes.sol\";\r\nimport {Nonces} from \"@openzeppelin/contracts/utils/Nonces.sol\";\r\n\r\n/// @custom:security-contact tolujohnofficial@gmail.com\r\n\r\ncontract VERECOToken is ERC20, Ownable, ERC20Burnable, ERC20Pausable, ERC20Permit, ERC20FlashMint, ERC20Votes {\r\n    constructor(address initialOwner, address recipient)\r\n        ERC20(\"EarthRectify\", \"VERECO\")\r\n        Ownable(initialOwner)\r\n        ERC20Permit(\"EarthRectify\")\r\n    {\r\n        _mint(recipient, 1000000 * 10 ** decimals());\r\n    }\r\n\r\n    function mint(address to, uint256 amount) public onlyOwner {\r\n        _mint(to, amount);\r\n    }\r\n        \r\n    function pause() public onlyOwner {\r\n        _pause();\r\n    }\r\n        \r\n    function unpause() public onlyOwner {\r\n        _unpause();\r\n    }\r\n        \r\n    function clock() public view override returns (uint48) {\r\n        return uint48(block.timestamp);\r\n    }\r\n\r\n    // solhint-disable-next-line func-name-mixedcase\r\n    function CLOCK_MODE() public pure override returns (string memory) {\r\n        return \"mode=timestamp\";\r\n    }\r\n        \r\n    // The following functions are overrides required by Solidity. \r\n\r\n    function _update(address from, address to, uint256 value)\r\n        internal\r\n        override(ERC20, ERC20Pausable, ERC20Votes)\r\n    {\r\n        super._update(from, to, value);\r\n    }\r\n\r\n    function nonces(address owner)\r\n        public\r\n        view\r\n        override(ERC20Permit, Nonces)\r\n        returns (uint256)\r\n    {\r\n        return super.nonces(owner);\r\n    }\r\n}",
  "sourcePath": "C:\\Users\\John PC\\Desktop\\startups\\EarthRectify\\earthrectify\\smart-contracts\\contracts\\VERECOToken.sol",
  "compiler": {
    "name": "solc",
    "version": "0.8.20+commit.a1b79de6.Emscripten.clang"
  },
  "schemaVersion": "3.4.16",
  "updatedAt": "2025-07-28T22:21:25.343Z",
  "networkType": "ethereum",
  "devdoc": {
    "custom:security-contact": "tolujohnofficial@gmail.com",
    "errors": {
      "CheckpointUnorderedInsertion()": [
        {
          "details": "A value was attempted to be inserted on a past checkpoint."
        }
      ],
      "ECDSAInvalidSignature()": [
        {
          "details": "The signature derives the `address(0)`."
        }
      ],
      "ECDSAInvalidSignatureLength(uint256)": [
        {
          "details": "The signature has an invalid length."
        }
      ],
      "ECDSAInvalidSignatureS(bytes32)": [
        {
          "details": "The signature has an S value that is in the upper half order."
        }
      ],
      "ERC20ExceededSafeSupply(uint256,uint256)": [
        {
          "details": "Total supply cap has been exceeded, introducing a risk of votes overflowing."
        }
      ],
      "ERC20InsufficientAllowance(address,uint256,uint256)": [
        {
          "details": "Indicates a failure with the `spender`s `allowance`. Used in transfers.",
          "params": {
            "allowance": "Amount of tokens a `spender` is allowed to operate with.",
            "needed": "Minimum amount required to perform a transfer.",
            "spender": "Address that may be allowed to operate on tokens without being their owner."
          }
        }
      ],
      "ERC20InsufficientBalance(address,uint256,uint256)": [
        {
          "details": "Indicates an error related to the current `balance` of a `sender`. Used in transfers.",
          "params": {
            "balance": "Current balance for the interacting account.",
            "needed": "Minimum amount required to perform a transfer.",
            "sender": "Address whose tokens are being transferred."
          }
        }
      ],
      "ERC20InvalidApprover(address)": [
        {
          "details": "Indicates a failure with the `approver` of a token to be approved. Used in approvals.",
          "params": {
            "approver": "Address initiating an approval operation."
          }
        }
      ],
      "ERC20InvalidReceiver(address)": [
        {
          "details": "Indicates a failure with the token `receiver`. Used in transfers.",
          "params": {
            "receiver": "Address to which tokens are being transferred."
          }
        }
      ],
      "ERC20InvalidSender(address)": [
        {
          "details": "Indicates a failure with the token `sender`. Used in transfers.",
          "params": {
            "sender": "Address whose tokens are being transferred."
          }
        }
      ],
      "ERC20InvalidSpender(address)": [
        {
          "details": "Indicates a failure with the `spender` to be approved. Used in approvals.",
          "params": {
            "spender": "Address that may be allowed to operate on tokens without being their owner."
          }
        }
      ],
      "ERC2612ExpiredSignature(uint256)": [
        {
          "details": "Permit deadline has expired."
        }
      ],
      "ERC2612InvalidSigner(address,address)": [
        {
          "details": "Mismatched signature."
        }
      ],
      "ERC3156ExceededMaxLoan(uint256)": [
        {
          "details": "The requested loan exceeds the max loan value for `token`."
        }
      ],
      "ERC3156InvalidReceiver(address)": [
        {
          "details": "The receiver of a flashloan is not a valid {IERC3156FlashBorrower-onFlashLoan} implementer."
        }
      ],
      "ERC3156UnsupportedToken(address)": [
        {
          "details": "The loan token is not valid."
        }
      ],
      "ERC5805FutureLookup(uint256,uint48)": [
        {
          "details": "Lookup to future votes is not available."
        }
      ],
      "ERC6372InconsistentClock()": [
        {
          "details": "The clock was incorrectly modified."
        }
      ],
      "EnforcedPause()": [
        {
          "details": "The operation failed because the contract is paused."
        }
      ],
      "ExpectedPause()": [
        {
          "details": "The operation failed because the contract is not paused."
        }
      ],
      "InvalidAccountNonce(address,uint256)": [
        {
          "details": "The nonce used for an `account` is not the expected current nonce."
        }
      ],
      "OwnableInvalidOwner(address)": [
        {
          "details": "The owner is not a valid owner account. (eg. `address(0)`)"
        }
      ],
      "OwnableUnauthorizedAccount(address)": [
        {
          "details": "The caller account is not authorized to perform an operation."
        }
      ],
      "SafeCastOverflowedUintDowncast(uint8,uint256)": [
        {
          "details": "Value doesn't fit in an uint of `bits` size."
        }
      ],
      "VotesExpiredSignature(uint256)": [
        {
          "details": "The signature used has expired."
        }
      ]
    },
    "events": {
      "Approval(address,address,uint256)": {
        "details": "Emitted when the allowance of a `spender` for an `owner` is set by a call to {approve}. `value` is the new allowance."
      },
      "DelegateChanged(address,address,address)": {
        "details": "Emitted when an account changes their delegate."
      },
      "DelegateVotesChanged(address,uint256,uint256)": {
        "details": "Emitted when a token transfer or delegate change results in changes to a delegate's number of voting units."
      },
      "EIP712DomainChanged()": {
        "details": "MAY be emitted to signal that the domain could have changed."
      },
      "Paused(address)": {
        "details": "Emitted when the pause is triggered by `account`."
      },
      "Transfer(address,address,uint256)": {
        "details": "Emitted when `value` tokens are moved from one account (`from`) to another (`to`). Note that `value` may be zero."
      },
      "Unpaused(address)": {
        "details": "Emitted when the pause is lifted by `account`."
      }
    },
    "kind": "dev",
    "methods": {
      "CLOCK_MODE()": {
        "details": "Machine-readable description of the clock as specified in ERC-6372."
      },
      "DOMAIN_SEPARATOR()": {
        "details": "Returns the domain separator used in the encoding of the signature for {permit}, as defined by {EIP712}."
      },
      "allowance(address,address)": {
        "details": "Returns the remaining number of tokens that `spender` will be allowed to spend on behalf of `owner` through {transferFrom}. This is zero by default. This value changes when {approve} or {transferFrom} are called."
      },
      "approve(address,uint256)": {
        "details": "See {IERC20-approve}. NOTE: If `value` is the maximum `uint256`, the allowance is not updated on `transferFrom`. This is semantically equivalent to an infinite approval. Requirements: - `spender` cannot be the zero address."
      },
      "balanceOf(address)": {
        "details": "Returns the value of tokens owned by `account`."
      },
      "burn(uint256)": {
        "details": "Destroys a `value` amount of tokens from the caller. See {ERC20-_burn}."
      },
      "burnFrom(address,uint256)": {
        "details": "Destroys a `value` amount of tokens from `account`, deducting from the caller's allowance. See {ERC20-_burn} and {ERC20-allowance}. Requirements: - the caller must have allowance for ``accounts``'s tokens of at least `value`."
      },
      "checkpoints(address,uint32)": {
        "details": "Get the `pos`-th checkpoint for `account`."
      },
      "clock()": {
        "details": "Clock used for flagging checkpoints. Can be overridden to implement timestamp based checkpoints (and voting), in which case {CLOCK_MODE} should be overridden as well to match."
      },
      "decimals()": {
        "details": "Returns the number of decimals used to get its user representation. For example, if `decimals` equals `2`, a balance of `505` tokens should be displayed to a user as `5.05` (`505 / 10 ** 2`). Tokens usually opt for a value of 18, imitating the relationship between Ether and Wei. This is the default value returned by this function, unless it's overridden. NOTE: This information is only used for _display_ purposes: it in no way affects any of the arithmetic of the contract, including {IERC20-balanceOf} and {IERC20-transfer}."
      },
      "delegate(address)": {
        "details": "Delegates votes from the sender to `delegatee`."
      },
      "delegateBySig(address,uint256,uint256,uint8,bytes32,bytes32)": {
        "details": "Delegates votes from signer to `delegatee`."
      },
      "delegates(address)": {
        "details": "Returns the delegate that `account` has chosen."
      },
      "eip712Domain()": {
        "details": "returns the fields and values that describe the domain separator used by this contract for EIP-712 signature."
      },
      "flashFee(address,uint256)": {
        "details": "Returns the fee applied when doing flash loans. This function calls the {_flashFee} function which returns the fee applied when doing flash loans.",
        "params": {
          "token": "The token to be flash loaned.",
          "value": "The amount of tokens to be loaned."
        },
        "returns": {
          "_0": "The fees applied to the corresponding flash loan."
        }
      },
      "flashLoan(address,address,uint256,bytes)": {
        "details": "Performs a flash loan. New tokens are minted and sent to the `receiver`, who is required to implement the {IERC3156FlashBorrower} interface. By the end of the flash loan, the receiver is expected to own value + fee tokens and have them approved back to the token contract itself so they can be burned.",
        "params": {
          "data": "An arbitrary datafield that is passed to the receiver.",
          "receiver": "The receiver of the flash loan. Should implement the {IERC3156FlashBorrower-onFlashLoan} interface.",
          "token": "The token to be flash loaned. Only `address(this)` is supported.",
          "value": "The amount of tokens to be loaned."
        },
        "returns": {
          "_0": "`true` if the flash loan was successful."
        }
      },
      "getPastTotalSupply(uint256)": {
        "details": "Returns the total supply of votes available at a specific moment in the past. If the `clock()` is configured to use block numbers, this will return the value at the end of the corresponding block. NOTE: This value is the sum of all available votes, which is not necessarily the sum of all delegated votes. Votes that have not been delegated are still part of total supply, even though they would not participate in a vote. Requirements: - `timepoint` must be in the past. If operating using block numbers, the block must be already mined."
      },
      "getPastVotes(address,uint256)": {
        "details": "Returns the amount of votes that `account` had at a specific moment in the past. If the `clock()` is configured to use block numbers, this will return the value at the end of the corresponding block. Requirements: - `timepoint` must be in the past. If operating using block numbers, the block must be already mined."
      },
      "getVotes(address)": {
        "details": "Returns the current amount of votes that `account` has."
      },
      "maxFlashLoan(address)": {
        "details": "Returns the maximum amount of tokens available for loan.",
        "params": {
          "token": "The address of the token that is requested."
        },
        "returns": {
          "_0": "The amount of token that can be loaned. NOTE: This function does not consider any form of supply cap, so in case it's used in a token with a cap like {ERC20Capped}, make sure to override this function to integrate the cap instead of `type(uint256).max`."
        }
      },
      "name()": {
        "details": "Returns the name of the token."
      },
      "numCheckpoints(address)": {
        "details": "Get number of checkpoints for `account`."
      },
      "owner()": {
        "details": "Returns the address of the current owner."
      },
      "paused()": {
        "details": "Returns true if the contract is paused, and false otherwise."
      },
      "permit(address,address,uint256,uint256,uint8,bytes32,bytes32)": {
        "details": "Sets `value` as the allowance of `spender` over ``owner``'s tokens, given ``owner``'s signed approval. IMPORTANT: The same issues {IERC20-approve} has related to transaction ordering also apply here. Emits an {Approval} event. Requirements: - `spender` cannot be the zero address. - `deadline` must be a timestamp in the future. - `v`, `r` and `s` must be a valid `secp256k1` signature from `owner` over the EIP712-formatted function arguments. - the signature must use ``owner``'s current nonce (see {nonces}). For more information on the signature format, see the https://eips.ethereum.org/EIPS/eip-2612#specification[relevant EIP section]. CAUTION: See Security Considerations above."
      },
      "renounceOwnership()": {
        "details": "Leaves the contract without owner. It will not be possible to call `onlyOwner` functions. Can only be called by the current owner. NOTE: Renouncing ownership will leave the contract without an owner, thereby disabling any functionality that is only available to the owner."
      },
      "symbol()": {
        "details": "Returns the symbol of the token, usually a shorter version of the name."
      },
      "totalSupply()": {
        "details": "Returns the value of tokens in existence."
      },
      "transfer(address,uint256)": {
        "details": "See {IERC20-transfer}. Requirements: - `to` cannot be the zero address. - the caller must have a balance of at least `value`."
      },
      "transferFrom(address,address,uint256)": {
        "details": "See {IERC20-transferFrom}. Skips emitting an {Approval} event indicating an allowance update. This is not required by the ERC. See {xref-ERC20-_approve-address-address-uint256-bool-}[_approve]. NOTE: Does not update the allowance if the current allowance is the maximum `uint256`. Requirements: - `from` and `to` cannot be the zero address. - `from` must have a balance of at least `value`. - the caller must have allowance for ``from``'s tokens of at least `value`."
      },
      "transferOwnership(address)": {
        "details": "Transfers ownership of the contract to a new account (`newOwner`). Can only be called by the current owner."
      }
    },
    "version": 1
  },
  "userdoc": {
    "kind": "user",
    "methods": {},
    "version": 1
  }
}